funding: 95f4c65e1ea0fbb4b7b06727a36ab55fb233af7573341f764b1f136a9ca75fce
script: 0x21 0x0291dcc5418605d63fb6441d2127425eb8711749313131b45069c20e0f02bf01e7 OP_CHECKSIGVERIFY 0x21 0x02b3f7623cf09a02088eb66737e2d3d308ea21a1d4fa105fc5a1d1ac775c63182c OP_CHECKSIG OP_IFDUP OP_NOTIF 0x03 0x2a0040 OP_CHECKSEQUENCEVERIFY OP_ENDIF
p2wsh: 0 bebc7b87a6ecd9357c69a7e48967ec70991c35ab9db0349f89e590c810ecd576
p2wsh hex: 0020bebc7b87a6ecd9357c69a7e48967ec70991c35ab9db0349f89e590c810ecd576

private key: cQESATDn6CpNdzUUv82ce3WkoSbm35sTFtuKwW5onQzdYjqTSTs5

raw spending tx: 0200000001ce5fa79c6a131f4b761f347375af33b25fb56aa32767b0b7b4fba01e5ec6f4950000000000ffffffff01806de72901000000220020bebc7b87a6ecd9357c69a7e48967ec70991c35ab9db0349f89e590c810ecd57600000000

./bitcoin-cli signrawtransactionwithkey 0200000001ce5fa79c6a131f4b761f347375af33b25fb56aa32767b0b7b4fba01e5ec6f4950000000000ffffffff01806de72901000000220020bebc7b87a6ecd9357c69a7e48967ec70991c35ab9db0349f89e590c810ecd57600000000 '["cQESATDn6CpNdzUUv82ce3WkoSbm35sTFtuKwW5onQzdYjqTSTs5"]' '[{"txid": "95f4c65e1ea0fbb4b7b06727a36ab55fb233af7573341f764b1f136a9ca75fce", "vout":0, "scriptPubKey":"0020bebc7b87a6ecd9357c69a7e48967ec70991c35ab9db0349f89e590c810ecd576", "witnessScript":"210291dcc5418605d63fb6441d2127425eb8711749313131b45069c20e0f02bf01e7ad2102b3f7623cf09a02088eb66737e2d3d308ea21a1d4fa105fc5a1d1ac775c63182cac7364032a0040b268", "amount":49.98}]'
