funding: 95f4c65e1ea0fbb4b7b06727a36ab55fb233af7573341f764b1f136a9ca75fce
script: 0x21 0x0291dcc5418605d63fb6441d2127425eb8711749313131b45069c20e0f02bf01e7 OP_CHECKSIGVERIFY 0x21 0x02b3f7623cf09a02088eb66737e2d3d308ea21a1d4fa105fc5a1d1ac775c63182c OP_CHECKSIG OP_IFDUP OP_NOTIF 0x03 0x2a0040 OP_CHECKSEQUENCEVERIFY OP_ENDIF
p2wsh: 0 bebc7b87a6ecd9357c69a7e48967ec70991c35ab9db0349f89e590c810ecd576
p2wsh hex: 0020bebc7b87a6ecd9357c69a7e48967ec70991c35ab9db0349f89e590c810ecd576

address: 2NFSGvSyMuz5EZhtk5aYu3XxHobSGZhiFER
pubkey: 02c0266bc4cc255a0d7bd06215f74e7a56bce9ad94badfdae154bc91d13f7a365a
private key: cQESATDn6CpNdzUUv82ce3WkoSbm35sTFtuKwW5onQzdYjqTSTs5

raw spending tx: 0200000001ce5fa79c6a131f4b761f347375af33b25fb56aa32767b0b7b4fba01e5ec6f4950000000000ffffffff01806de72901000000220020bebc7b87a6ecd9357c69a7e48967ec70991c35ab9db0349f89e590c810ecd57600000000

./bitcoin-cli signrawtransactionwithkey 0200000001ce5fa79c6a131f4b761f347375af33b25fb56aa32767b0b7b4fba01e5ec6f4950000000000ffffffff01806de72901000000220020bebc7b87a6ecd9357c69a7e48967ec70991c35ab9db0349f89e590c810ecd57600000000 '["cQESATDn6CpNdzUUv82ce3WkoSbm35sTFtuKwW5onQzdYjqTSTs5"]' '[{"txid": "95f4c65e1ea0fbb4b7b06727a36ab55fb233af7573341f764b1f136a9ca75fce", "vout":0, "scriptPubKey":"0020bebc7b87a6ecd9357c69a7e48967ec70991c35ab9db0349f89e590c810ecd576", "witnessScript":"210291dcc5418605d63fb6441d2127425eb8711749313131b45069c20e0f02bf01e7ad2102b3f7623cf09a02088eb66737e2d3d308ea21a1d4fa105fc5a1d1ac775c63182cac7364032a0040b268", "amount":49.98}]'


new in: 136130e3f705d3c2820d237a84efb28b25b6f588f84c74216186c47067efc9f6
funding hex: 0200000001f6c9ef6770c4866121744cf888f5b6258bb2ef847a230d82c2d305f7e33061130000000000ffffffff01c0aff62901000000220020c185e4547547df5a6d3f9975325732cb63144572b613efa4ba0c30a47d58304f00000000

funding id: 7745a8f5f84a4408ff104d5df504f07b383aecbb5aeafb1ec57b2e6977a90afb

witnessScript: 2102c0266bc4cc255a0d7bd06215f74e7a56bce9ad94badfdae154bc91d13f7a365aad2102b3f7623cf09a02088eb66737e2d3d308ea21a1d4fa105fc5a1d1ac775c63182cac7364032a0040b268

cp hex: 0200000001fb0aa977692e7bc51efbea5abbec3a387bf004f55d4d10ff08444af8f5a845770000000000ffffffff01806de72901000000220020c185e4547547df5a6d3f9975325732cb63144572b613efa4ba0c30a47d58304f00000000

./bitcoin-cli signrawtransactionwithkey 0200000001fb0aa977692e7bc51efbea5abbec3a387bf004f55d4d10ff08444af8f5a845770000000000ffffffff01806de72901000000220020c185e4547547df5a6d3f9975325732cb63144572b613efa4ba0c30a47d58304f00000000 '["cQESATDn6CpNdzUUv82ce3WkoSbm35sTFtuKwW5onQzdYjqTSTs5"]' '[{"txid": "7745a8f5f84a4408ff104d5df504f07b383aecbb5aeafb1ec57b2e6977a90afb", "vout":0, "scriptPubKey":"0020c185e4547547df5a6d3f9975325732cb63144572b613efa4ba0c30a47d58304f", "witnessScript":"2102c0266bc4cc255a0d7bd06215f74e7a56bce9ad94badfdae154bc91d13f7a365aad2102b3f7623cf09a02088eb66737e2d3d308ea21a1d4fa105fc5a1d1ac775c63182cac7364032a0040b268", "amount":49.98}]'


"witnessScript":"210291dcc5418605d63fb6441d2127425eb8711749313131b45069c20e0f02bf01e7ad2102b3f7623cf09a02088eb66737e2d3d308ea21a1d4fa105fc5a1d1ac775c63182cac7364032a0040b268",
"witnessScript":"2102c0266bc4cc255a0d7bd06215f74e7a56bce9ad94badfdae154bc91d13f7a365aad2102b3f7623cf09a02088eb66737e2d3d308ea21a1d4fa105fc5a1d1ac775c63182cac7364032a004",



######################### funding 3
funding id: 48057853546e7d2f8e90a2c0d0a69699968d3eed52256f1b01cae7cbd1ae6ef6
issue hex: 0200000001fb0aa977692e7bc51efbea5abbec3a387bf004f55d4d10ff08444af8f5a845770000000000ffffffff01806de72901000000220020722fafdee376cdf78b26972d49c3003aa3a1fe2abb295217bcadd699a240d72400000000





######## ???
address: mg413DybPFG2cFT4kPYrq1fvzKgeH1xkKt
pubkey: 03d5d6f30bc23486e2be4fcfa1ce2c5ada02669a0e6ab1b14297ec710ff5c07b84
privkey: cTGEG6o3yBoNUBkP3Stjfutj8WAuy6FZVYwjXYVgWPf2xFR1r3mu

funding: 61d123637ca3d333349eb8d8febce9225598ae8a1f845223194f4952408f77db
amount: 3.124 (fee: 0.001)
issue: 0200000001db778f4052494f192352841f8aae985522e9bcfed8b89e3433d3a37c6323d1610000000000ffffffff0180d89e12000000002200201e16b9750bf2c6d648cc76326e7ac51a66e626f99ae17279f4831b3004b5cffc00000000
signed: 0200000001db778f4052494f192352841f8aae985522e9bcfed8b89e3433d3a37c6323d161000000006a47304402207682301af76570e5761c2f2de478cac26debc690585ec04c798b7ff6b2454d4f022010be8743c2f1e0649726302142f8879d0d083818ebfd748a64ecb9e725176326012103d5d6f30bc23486e2be4fcfa1ce2c5ada02669a0e6ab1b14297ec710ff5c07b84ffffffff0180d89e12000000002200201e16b9750bf2c6d648cc76326e7ac51a66e626f99ae17279f4831b3004b5cffc00000000

issue id: cd3d4d76b21cb78c9d58bd830090bbd3a5c1c3ffe720b1e3a9395d04e20baae0
witnessScript: 2103d5d6f30bc23486e2be4fcfa1ce2c5ada02669a0e6ab1b14297ec710ff5c07b84ad2103d5d6f30bc23486e2be4fcfa1ce2c5ada02669a0e6ab1b14297ec710ff5c07b84ac7364032a0040b268

checkpoint: 0200000001e0aa0be2045d39a9e3b120e7ffc3c1a5d3bb900083bd589d8cb71cb2764d3dcd0000000000ffffffff01e0519d12000000002200201e16b9750bf2c6d648cc76326e7ac51a66e626f99ae17279f4831b3004b5cffc00000000
sign:
./bitcoin-cli signrawtransactionwithkey 0200000001e0aa0be2045d39a9e3b120e7ffc3c1a5d3bb900083bd589d8cb71cb2764d3dcd0000000000ffffffff01e0519d12000000002200201e16b9750bf2c6d648cc76326e7ac51a66e626f99ae17279f4831b3004b5cffc00000000 '["cTGEG6o3yBoNUBkP3Stjfutj8WAuy6FZVYwjXYVgWPf2xFR1r3mu"]' '[{"txid": "cd3d4d76b21cb78c9d58bd830090bbd3a5c1c3ffe720b1e3a9395d04e20baae0", "vout":0, "scriptPubKey":"00201e16b9750bf2c6d648cc76326e7ac51a66e626f99ae17279f4831b3004b5cffc", "witnessScript":"2103d5d6f30bc23486e2be4fcfa1ce2c5ada02669a0e6ab1b14297ec710ff5c07b84ad2103d5d6f30bc23486e2be4fcfa1ce2c5ada02669a0e6ab1b14297ec710ff5c07b84ac7364032a0040b268", "amount":3.123}]'


SIGHASH DURING SIGNING:     680e7e59c8467ca9f7dae3d80060207ae18b1eb157dc68173f7edc5b148118de
SIGHASH DURING CHECKING:    75e7af34ffc115a1635200804fb855b959ee0eb683171059b2efd765592d873b


signrawtransactionwithkey:
HASHING FOR SIGNATURE
scriptCode: 2103d5d6f30bc23486e2be4fcfa1ce2c5ada02669a0e6ab1b14297ec710ff5c07b84ad2103d5d6f30bc23486e2be4fcfa1ce2c5ada02669a0e6ab1b14297ec710ff5c07b84ac7364032a0040b268
nIn: 0
nHashType: 1
hashing witness...
hashPrevouts: b1ac239197ef38bdce06e3550ff892df80c77e80411fda19c7c748186496d170
hashSequence: 445066705e799022b7095f7ceca255149f43acfc47e7f59e551f7bce2930b13b
hashOutputs: a9694dea588052f603dee4ec887b0929d4468f4e5b2734ba5285064ea546ec4c
SIGHASH BEING CHECKED: 680e7e59c8467ca9f7dae3d80060207ae18b1eb157dc68173f7edc5b148118de


testmempoolaccept:
HASHING FOR SIGNATURE
scriptCode: 2103d5d6f30bc23486e2be4fcfa1ce2c5ada02669a0e6ab1b14297ec710ff5c07b84ad2103d5d6f30bc23486e2be4fcfa1ce2c5ada02669a0e6ab1b14297ec710ff5c07b84ac7364032a0040b268
nIn: 0
nHashType: 1
hashing witness...
hashPrevouts: b1ac239197ef38bdce06e3550ff892df80c77e80411fda19c7c748186496d170
hashSequence: 445066705e799022b7095f7ceca255149f43acfc47e7f59e551f7bce2930b13b
hashOutputs: a9694dea588052f603dee4ec887b0929d4468f4e5b2734ba5285064ea546ec4c
SIGHASH BEING CHECKED: 75e7af34ffc115a1635200804fb855b959ee0eb683171059b2efd765592d873b










signrawtransactionwithkey:
HASHING FOR SIGNATURE
nIn: 0
nHashType: 1
hashing witness...
txTo.nVersion: 2
hashPrevouts: b1ac239197ef38bdce06e3550ff892df80c77e80411fda19c7c748186496d170
hashSequence: 445066705e799022b7095f7ceca255149f43acfc47e7f59e551f7bce2930b13b
txTo.vin[nIn].prevout: COutPoint(cd3d4d76b2, 0)
scriptCode: 2103d5d6f30bc23486e2be4fcfa1ce2c5ada02669a0e6ab1b14297ec710ff5c07b84ad2103d5d6f30bc23486e2be4fcfa1ce2c5ada02669a0e6ab1b14297ec710ff5c07b84ac7364032a0040b268
amount: 312300000
txTo.vin[nIn].nSequence: 4294967295
hashOutputs: a9694dea588052f603dee4ec887b0929d4468f4e5b2734ba5285064ea546ec4c
txTo.nLockTime: 0
nHashType: 1
SIGHASH BEING CHECKED: 680e7e59c8467ca9f7dae3d80060207ae18b1eb157dc68173f7edc5b148118de

testmempoolaccept:
HASHING FOR SIGNATURE
nIn: 0
nHashType: 1
hashing witness...
txTo.nVersion: 2
hashPrevouts: b1ac239197ef38bdce06e3550ff892df80c77e80411fda19c7c748186496d170
hashSequence: 445066705e799022b7095f7ceca255149f43acfc47e7f59e551f7bce2930b13b
txTo.vin[nIn].prevout: COutPoint(cd3d4d76b2, 0)
scriptCode: 2103d5d6f30bc23486e2be4fcfa1ce2c5ada02669a0e6ab1b14297ec710ff5c07b84ad2103d5d6f30bc23486e2be4fcfa1ce2c5ada02669a0e6ab1b14297ec710ff5c07b84ac7364032a0040b268
amount: 312400000
txTo.vin[nIn].nSequence: 4294967295
hashOutputs: a9694dea588052f603dee4ec887b0929d4468f4e5b2734ba5285064ea546ec4c
txTo.nLockTime: 0
nHashType: 1
SIGHASH BEING CHECKED: 75e7af34ffc115a1635200804fb855b959ee0eb683171059b2efd765592d873b

